:020000040800F2
:10000000E0070020D5010008B7110008AF11000873
:10001000B3110008AD040008D91400080000000066
:10002000000000000000000000000000E5110008D2
:10003000B104000800000000B91100083D120008DA
:10004000EF010008EF010008EF010008EF010008D0
:10005000EF010008EF010008EF010008EF010008C0
:10006000EF010008EF010008EF010008EF010008B0
:10007000EF010008EF010008EF010008EF010008A0
:10008000EF010008EF010008EF010008EF01000890
:10009000EF010008EF010008EF010008EF01000880
:1000A000EF010008EF010008EF010008EF01000870
:1000B000EF010008EF010008EF010008EF01000860
:1000C000EF010008EF010008EF010008EF01000850
:1000D000EF010008EF010008EF010008EF01000840
:1000E000EF010008EF010008EF010008EF01000830
:1000F000EF010008EF010008EF010008EF01000820
:10010000EF010008EF010008EF010008EF0100080F
:10011000EF010008EF010008EF010008EF010008FF
:10012000EF010008EF010008EF010008EF010008EF
:1001300000F002F800F03FF80AA090E8000C8244BA
:100140008344AAF10107DA4501D100F034F8AFF297
:10015000090EBAE80F0013F0010F18BFFB1A43F0A5
:1001600001031847441C0000641C0000103A24BF1F
:1001700078C878C1FAD8520724BF30C830C144BF0C
:1001800004680C607047000000230024002500264E
:10019000103A28BF78C1FBD8520728BF30C148BFEA
:1001A0000B607047732900F03581002070471FB540
:1001B0001FBD10B510BD00F047F91146FFF7F7FF5E
:1001C00001F070FD00F065F903B4FFF7F2FF03BC26
:1001D00001F07FFA0948804709480047FEE7FEE73B
:1001E000FEE7FEE7FEE7FEE7FEE7FEE7FEE7FEE7E7
:1001F00004480549054A064B7047000045120008AF
:1002000031010008E0010020E0070020E0030020A9
:10021000E0030020704700000FB4044910B503AAA2
:10022000029800F0FBF810BC5DF814FB28000020D9
:100230002DE9F0410E460446002020622046E16888
:10024000884730B3252805D0D4E901219047206A9A
:10025000401CF2E7E168204600278847050018D0D7
:10026000A5F14100192802D820354FF40067324625
:10027000294620462760FFF795FF40B1012804D0AA
:10028000F61D26F007060836D8E7361DD6E72846BD
:10029000DAE7206ABDE8F08170B50C460546012A10
:1002A00005D02878800600D5EA69002302E0012302
:1002B00005E05B1C934202D2E05C0028F9D1A869FA
:1002C000E618C01AA861286A184428622846AFF3C5
:1002D000008004E0D5E9012114F8010B9047B442F5
:1002E000F8D32846AFF3008070BD4FF0000200B590
:1002F000134694469646203922BFA0E80C50A0E849
:100300000C50B1F12001BFF4F7AF090728BFA0E8F6
:100310000C5048BF0CC05DF804EB890028BF40F8C2
:10032000042B08BF704748BF20F8022B11F0804F04
:1003300018BF00F8012B70474FF0013C50F8042B18
:1003400051F8043B9A4221D1A2EB0C03934313EAE8
:10035000CC1317D150F8042B51F8043B9A4215D115
:10036000A2EB0C03934313EACC130BD150F8042BEC
:1003700051F8043B9A4209D1A2EB0C03934313EAD0
:10038000CC13DBD04FF00000704700BFD01A01BA89
:10039000B1FA81F101F0180122FA01F0CB40C1F16C
:1003A0002001DBB2C0B2C01A2CFA01F3D11A91437A
:1003B00011EAC311E6D17047704770477047704724
:1003C00001694A1C02610878704700B58FB0CDE919
:1003D00001310021059105497944CDE90310114609
:1003E0006846FFF725FF0FB000BD0000E5FFFFFFE7
:1003F00010B5436913B1AFF3008001E0FFF74CFF84
:10040000012010BD127800F124010A7000224A7008
:100410000122EDE711684FF0FF32E9E7074B70B5B5
:100420000D467B44FFF7D1FF0446284600F008F84C
:1004300010B14FF0FF3070BD204670BDB317000003
:10044000007B00F080007047754600F02BF8AE4648
:1004500005006946534620F00700854618B020B5D0
:10046000FFF7C6FEBDE820404FF000064FF0000742
:100470004FF000084FF0000B21F00701AC46ACE84C
:10048000C009ACE8C009ACE8C009ACE8C0098D46B9
:10049000704710B50446AFF300802046BDE8104019
:1004A000FFF792BE004870478001002000BFFEE7C2
:1004B000704700002DE9F847024600239C467BE187
:1004C0004FF0010808FA03F4D1F8008008EA0400AC
:1004D000A0427DD1DFF8F4A2D1F80480A8EB0A098C
:1004E000D0453AD014DCB8F1030F50D009DCB8F194
:1004F000000F31D0B8F1010F1CD0B8F1020F49D173
:1005000020E0B8F1110F18D0B8F1120F42D11EE05F
:10051000B9F5881F25D006DCB9F5803F20D0B9F5A4
:10052000801F37D11AE0B9F5001F18D0B9F5041FA4
:1005300030D117E0D1F80CC02DE0D1F80C8008F1D3
:10054000040C28E0D1F80C8008F1080C23E0D1F865
:100550000C8008F10C0C1EE000BF00BF00BF00BF04
:1005600000BF00BFD1F80880B8F1000F02D14FF0F2
:10057000040C0BE0D1F80880B8F1010F03D14FF063
:10058000080C146102E04FF0080C546103E04FF0D6
:10059000000C00E000BF00BFFF2801D8904601E03A
:1005A00002F104084646FF2802D84FEA830803E018
:1005B000A3F108084FEA88084746D6F800804FF0B4
:1005C0000F0909FA07F928EA09080CFA07F900E007
:1005D0007AE048EA0908C6F80080D1F8048008F0FB
:1005E0008058B8F1805F6FD100BFDFF8E481D8F8A0
:1005F000188048F00108DFF8D891C9F81880C8467B
:10060000D8F8188008F00108CDF8008000BF00BFBE
:100610004FEAB9384FEA930958F829504FEA8378DE
:100620004FEA18794FF00F0808FA09F825EA08058B
:10063000DFF8A081424502D14FF0000824E0DFF846
:100640009881424502D14FF001081DE0DFF88C810E
:10065000424502D14FF0020816E0DFF8848142459E
:1006600002D14FF003080FE0DFF87881424502D154
:100670004FF0040808E0DFF87081424502D14FF0E6
:10068000050801E04FF006084FEA83794FEA19792F
:1006900008FA09F848EA0505DFF850814FEA93099E
:1006A00048F82950D1F8048008F48038B8F5803F24
:1006B0000BD1DFF83C81D8F8008048EA0008DFF869
:1006C0003091C9F800800AE075E0DFF82481D8F89D
:1006D000008028EA0008DFF81891C9F80080D1F8F6
:1006E000048008F40038B8F5003F0ED1DFF800812F
:1006F00008F10408D8F8008048EA0008DFF8F09014
:1007000009F10409C9F800800DE0DFF8E48008F180
:100710000408D8F8008028EA0008DFF8D49009F12E
:100720000409C9F80080D1F8048008F48018B8F5ED
:10073000801F0ED1DFF8B88008F10808D8F80080D3
:1007400048EA0008DFF8A89009F10809C9F8008014
:100750000DE0DFF89C8008F10808D8F8008028EA4E
:100760000008DFF88C9009F10809C9F80080D1F879
:10077000048008F40018B8F5001F0ED1DFF870806F
:1007800008F10C08D8F8008048EA0008DFF860900B
:1007900009F10C09C9F800800DE0DFF8548008F178
:1007A0000C08D8F8008028EA0008DFF8449009F126
:1007B0000C09C9F800805B1CD1F8008028FA03F806
:1007C000B8F1000F7FF47CAEBDE8F887000011108F
:1007D0000010024000080140000C014000100140E0
:1007E0000014014000180140001C014008000140B5
:1007F00000040140024693680B400BB1012000E069
:10080000002070470AB1016101E00B0403617047E9
:100810000148006870470000540000200348006849
:1008200003490978084401490860704754000020D2
:100830005C00002010B50848006840F01000064930
:100840000860052000F070F80F2000F007F800F0B5
:100850002BF8002010BD00000020024070B50446B7
:100860000E4800784FF47A71B1FBF0F00C4909683A
:10087000B1FBF0F5284600F0E7FB08B1012070BDA0
:10088000102C07D200222146501E00F00EF8054819
:10089000046001E00120F2E70020F0E75C000020A6
:1008A000000000205800002070472DE9F05F8046CE
:1008B0000D461646002700F011FE074639462A4627
:1008C000334601F00700C0F1070ABAF1040F02D95C
:1008D0004FF0040A01E0C0F1070AD14600F1040A12
:1008E000BAF1070F02D24FF0000A01E0A0F1030AAB
:1008F000D4464FF0010A0AFA09FAAAF1010A0AEAF3
:10090000020A0AFA0CFA4FF0010B0BFA0CFBABF1DE
:10091000010B0BEA030B4AEA0B042146404600F0A8
:10092000E5FDBDE8F09F000000BF00F00702064BA8
:1009300019684FF6FF031940044B0B4343EA0221A9
:10094000014B196000BF70470CED00E00000FA0594
:1009500070B504460D460CB9012070BD5A480068B8
:1009600000F00700A8420ED25748006820F00700A8
:100970002843554908600846006800F00700A8426F
:1009800001D00120E9E7207800F0020002281DD103
:10099000207800F00400042805D14C48406840F459
:1009A000E0604A494860207800F00800082805D136
:1009B0004648406840F460504449486043484068B5
:1009C00020F0F000A168084340494860207800F01A
:1009D000010078B36068012806D13C48006800F443
:1009E000003090B90120B8E76068022806D1374886
:1009F000006800F0007040B90120AEE7334800689D
:100A000000F0020008B90120A7E73048406820F054
:100A10000300616808432D494860FFF7F9FE064668
:100A200009E0FFF7F5FE801B41F28831884202D9C8
:100A3000032092E707E02548406800F00C00616859
:100A4000B0EB810FEDD12048006800F00700A8420C
:100A50000ED91D48006820F0070028431A49086095
:100A60000846006800F00700A84201D0012074E7A2
:100A7000207800F00400042807D11448406820F4CE
:100A8000E060E168084311494860207800F0080000
:100A9000082808D10D48406820F46050216940EAD8
:100AA000C1000A49486000F03FF808494968C1F3AD
:100AB0000311074A515CC8400649086006480068AF
:100AC000FFF7CCFE002048E7002002400010024063
:100AD000CC1C0008000000205800002001480068DD
:100AE000704700000000002000B5FFF7F7FF044941
:100AF0004968C1F30221034A515CC84000BD0000AF
:100B000000100240DC1C000800B5FFF7E7FF0449B5
:100B10004968C1F3C221034A515CC84000BD0000CE
:100B200000100240DC1C0008F0B585B00FF26C0C20
:100B30009CE8E01001A8A0E8E0101CA52D68009535
:100B400000210022002300240020194D696801F0D3
:100B50000C05F5B1042D02D0082D19D101E015487E
:100B600019E001ADC1F38346AC5D01F4803555B1A8
:100B70000F4D6D68C5F340451DF805200D4D6543CB
:100B8000B5FBF2F302E00C4D04FB05F3184602E05E
:100B900000BF084800BF00BF05B0F0BD0203040558
:100BA000060708090A0B0C0D0E0F101001020000B9
:100BB0000010024000127A0000093D00F8B504461A
:100BC0000CB90120F8BD207800F00100002878D091
:100BD000F848406800F00C0004280CD0F548406844
:100BE00000F00C00082811D1F248406800F4803071
:100BF000B0F5803F0AD1EF48006800F400300028CB
:100C00005FD0606800285CD10120DBE700BF60682E
:100C1000B0F5803F06D1E748006840F48030E549F0
:100C2000086028E0606858B9E248006820F4803025
:100C3000E04908600846006820F4802008601AE057
:100C40006068B0F5A02F0BD1DA48006840F480202E
:100C5000D84908600846006840F4803008600AE01F
:100C6000D448006820F48030D24908600846006803
:100C700020F48020086000BF606888B1FFF7C8FDDD
:100C8000054606E0FFF7C4FD401B642801D9032098
:100C900098E7C848006800F400300028F2D010E05F
:100CA000FFF7B6FD054606E0FFF7B2FD401B6428DE
:100CB00001D9032086E7BF48006800F4003000280F
:100CC000F2D1207800F00200022857D1B9484068DC
:100CD00000F00C0050B1B748406800F00C00082844
:100CE00018D1B448406800F4803098B9B148006821
:100CF00000F0020020B12069012801D0012061E745
:100D0000AC48006820F0F800616940EAC100A949D8
:100D1000086033E02069E8B10120A7490860FFF7C7
:100D200077FD054606E0FFF773FD401B022801D959
:100D3000032047E79F48006800F002000028F2D037
:100D40009C48006820F0F800616940EAC1009949B8
:100D5000086013E0002098490860FFF759FD054638
:100D600006E0FFF755FD401B022801D9032029E7C3
:100D70009048006800F002000028F2D1207800F0CE
:100D8000080008282DD1A069B8B101208B4908605E
:100D9000FFF73EFD054606E0FFF73AFD401B02283F
:100DA00001D903200EE78348406A00F002000028C2
:100DB000F2D0012000F002FA13E000207F49086021
:100DC000FFF726FD054606E0FFF722FD401B02283F
:100DD00001D90320F6E67748406A00F002000028B7
:100DE000F2D1207800F00400042873D10027714864
:100DF000C06900F0805070B900BF6E48C06940F013
:100E000080506C49C8610846C06900F0805000906D
:100E100000BF00BF01276A48006800F48070B0B9C5
:100E20006748006840F4807065490860FFF7F0FC8F
:100E3000054606E0FFF7ECFC401B642801D90320BF
:100E4000C0E65F48006800F480700028F2D000BF60
:100E5000E068012806D15748006A40F00100554972
:100E6000086227E0E06858B95248006A20F00100A3
:100E7000504908620846006A20F00400086219E040
:100E8000E06805280BD14B48006A40F0040049494E
:100E900008620846006A40F0010008620AE045481E
:100EA000006A20F00100434908620846006A20F009
:100EB0000400086200BFE068A0B1FFF7A9FC054686
:100EC00009E0FFF7A5FC401B41F28831884202D9B6
:100ED000032077E622E03748006A00F0020000288D
:100EE000EFD012E0FFF794FC054608E0FFF790FC16
:100EF000401B41F28831884201D9032062E62D4827
:100F0000006A00F002000028F0D1012F05D1294825
:100F1000C06920F080502749C86100BFE069C8B3AC
:100F20002448406800F00C00082860D0E0690228DE
:100F300048D1002020490866FFF76AFC054606E014
:100F4000FFF766FC401B022801D903203AE6194846
:100F5000006800F000700028F2D1206AB0F5803FF0
:100F600007D11448406820F40030A16808431149B3
:100F70004860D4E9080108430E49496821F4741116
:100F800008430C49486001200B490866FFF740FC04
:100F9000054607E03DE0FFF73BFC401B022801D976
:100FA00003200FE60348006800F000700028F2D02C
:100FB0002FE0000000100240000042428004424244
:100FC00000700040002014490866FFF721FC054628
:100FD00006E0FFF71DFC401B022801D90320F1E5C4
:100FE0000E48006800F000700028F2D111E0E069BE
:100FF000012800D1E6E50948466806F48031206AF8
:10100000814204D106F47011606A814201D001204E
:10101000D8E50020D6E50000000042420010024062
:10102000042808D14FF0E021096941F004014FF094
:10103000E022116107E04FF0E021096921F004018D
:101040004FF0E0221161704770B504462546681ED6
:10105000B0F1807F01D301200FE0681E4FF0E02146
:1010600048610F214FF0FF3000F040FA00204FF0B0
:10107000E021886107200861002070BD10B504469A
:101080000CB9012010BD94F83D0028B9002084F867
:101090003C00204600F01FF8022084F83D00204666
:1010A00000F0FCF82068006920F4804021680861A5
:1010B0002068406920F02A00216848612068C068E3
:1010C00040F400502168C86000202064012084F8AA
:1010D0003D000020D6E770472DE9F84304460D4651
:1010E00016461F464FF0000994F83D0001285CD1D8
:1010F00005B116B90120BDE8F88300BF94F83C00A3
:10110000012801D10220F6E7012084F83C0000BF4D
:1011100000202064122084F83D00FFF779FB81460F
:10112000268566852BE0608D401E6085A068B0F541
:10113000805F16D14B46002280212046009700F0A8
:101140008BF908B10320D6E7A846B8F80000C0F331
:10115000080021684860206908B9AD1C0FE06D1CCB
:101160000DE04B46002280212046009700F074F9E4
:1011700008B10320BFE715F8010B21684860608DB6
:101180000028D0D14B46002240212046009700F095
:1011900063F908B10320AEE7012084F83D0000BFE9
:1011A000002084F83C0000BFA5E70220A3E700BFB1
:1011B000FEE700BFFEE770477047000008B508492A
:1011C0000968C9084FF47A72B1FBF2F1414300910A
:1011D00000BF00BF00994A1E00920029F9D108BD46
:1011E00000000020704730B58FB005460024012074
:1011F0000590000406900020079002200C90C10387
:101200000D910E9505A8FFF7D9FC04460CB100BF5F
:10121000FEE70F20009002200190002002904FF482
:10122000806003900020049002216846FFF790FB45
:1012300004460CB100BFFEE70FB030BD10B5FFF79C
:10124000EDFA10BD1148006840F001000F49086038
:10125000084640680E4908400C4948600846006846
:101260000C490840094908600846006820F48020BD
:1012700008600846406820F4FE0048604FF41F00F4
:101280008860C803044908607047000000100240ED
:101290000000FFF8FFFFF6FE08ED00E070B5044621
:1012A00000252168C96821F00C012268D1602168FD
:1012B0000D6925F47C55A16941F40061E26911438F
:1012C000226A1143E26811430D4321680D612168D0
:1012D000CD6841F20C618D432269A16811436269B6
:1012E00011430D432168CD602168496921F44071A3
:1012F00022685161574A2168914255D1FFF704FC99
:1013000000EBC00101EB001162689200B1FBF2F149
:101310006422B1FBF2F10A0100EBC00101EB001104
:1013200063689B00B1FBF3F100EBC00303EB001318
:101330006668B600B3FBF6F36426B3FBF6F303EB83
:10134000C30606EB0313A1EB8301322303EB011168
:101350006423B1FBF3F101F0F00102EB410200EB79
:10136000C00101EB001163689B00B1FBF3F100EBDE
:10137000C00303EB00136668B600B3FBF6F3642604
:10138000B3FBF6F303EBC30606EB0313A1EB8301F8
:10139000322303EB01116423B1FBF3F101F00F01E0
:1013A00011442268916054E0FFF79EFB00EBC001FE
:1013B00001EB001162689200B1FBF2F16422B1FB13
:1013C000F2F10A0100EBC00101EB001163689B0020
:1013D000B1FBF3F100EBC00303EB00136668B6004A
:1013E000B3FBF6F36426B3FBF6F303EBC30606EB9D
:1013F0000313A1EB8301322303EB01116423B1FB3F
:10140000F3F101F0F00102EB410200EBC00101EB4E
:10141000001163689B00B1FBF3F100EBC00303EB29
:1014200000136668B600B3FBF6F36426B3FBF6F36D
:1014300003EBC30606EB0313A1EB8301322303EB9B
:1014400001116423B1FBF3F101F00F011144226893
:10145000916070BD003801402DE9F04104460D4611
:1014600017469846069E2BE0701C48B32EB1FFF736
:10147000CFF9A0EB0800B04222D92068C06820F064
:1014800080002168C8602068C06820F020002168C2
:10149000C8602068C06820F480702168C860206837
:1014A000406920F0010021684861012084F83D0076
:1014B00000BF002084F83C0000BF0320BDE8F0819D
:1014C000206800682840A84201D1012000E00020E7
:1014D000B842C9D00020F1E700BFFEE7024800682B
:1014E000C0F30220704700000CED00E010B50028AA
:1014F00004DB0A07130E054A135406E00A07140E0C
:10150000034A00F00F031B1FD45410BD00E400E099
:1015100018ED00E010B5234B0DE0A3F118010A46C9
:101520001468B4F1A53F03D15469B4F1A53F00D0CC
:1015300002E0134600BFF0E700BF1B4A1360002023
:101540002BE000EB4002184C246854F83220B2F132
:10155000A53F21D100EB4002134C246804EBC202EA
:101560005269B2F1A53F17D100EB40020E4C24683E
:1015700004EBC20292F911200C4C94F90040A242F3
:1015800008DD00EB4002084C246804EBC202527CE8
:10159000064C2270401C00E000E0D2E700BF044A85
:1015A000106010BD101E00086C00002064000020B8
:1015B0006800002070B504466568A989A868FFF72F
:1015C00019F90646012E00D170BD0020FCE77FB559
:1015D00005466C6800200090019002900390012065
:1015E000019000200290A08900900220039069469B
:1015F000A068FEF75FFFA37B0BB1012300E000238F
:101600001A46A189A068FFF7FDF87FBD70B50546B1
:1016100000241AE004EB44000E49096801EBC00005
:1016200090F91100A8420FD104EB44000949096860
:1016300001EBC000007C38B904EB4401054A126894
:1016400002EBC10188688047641C0348006884423B
:10165000E0D370BD6C000020680000207FB5054617
:101660000C466E680020009001900290039014B91F
:10167000019002901AE0012C04D100200190012079
:10168000029013E0022C04D100200190022002906D
:101690000CE0032C04D1012001900020029005E011
:1016A000042C03D11120019001200290B0890090F8
:1016B000022003906946B068FEF7FCFE7FBD70B55E
:1016C00004460D466668B1892A46B068FFF79AF865
:1016D00070BD00BF70472DE9F04704460E46154621
:1016E0006768AAB24FF6FF7331463846FFF7F4FC3D
:1016F00080464FF0FF39B8F1000F01D14FF00009DB
:101700004846BDE8F087000070B505460748046804
:1017100006E02946E068FEF70FFE00B902E0246803
:10172000002CF6D100BF204670BD000070000020E4
:1017300010B5037E012B00D110BD0223037600BF3C
:10174000437600BF8160D2E90034C0E9033400234E
:101750008382C38201230376034B1B680360024B21
:10176000186000BFE8E70000700000202DE9FC4190
:1017700004460D4616461F460020606084F821701E
:101780003046FFF7C1FFE061054903C9CDE900011B
:1017900000956A4603492046FFF7CAFFBDE8FC8171
:1017A0002C1D00081C1D000870B505462C46E0697C
:1017B00000F011F8064694F820200AB9012200E052
:1017C00000221146E06900F035F8E06900F003F806
:1017D00084F8200070BD70B504462546E86981682C
:1017E0002846884785F8210095F8210070BD000043
:1017F0002DE9FC4104460D4616461F460B4903C918
:10180000CDE9000100956A4609492046FFF790FF9F
:101810006760E661E069016820468847E0698168A1
:101820002046884784F82100BDE8FC81F41C0008AC
:101830002801002070B504460E46254695F8210083
:10184000B04207D0E8693146C26828469047204632
:10185000FFF7C1FF70BD000010B5FFF75BFE00246D
:1018600004E060B2FFF7D2FE601CC4B2024890F9F7
:1018700000008442F5DB10BD640000202DE9FF4725
:1018800004460F4690461E46DDF83090282120463B
:10189000FEF72BFDC4F81C8046B91D4903C9CDE9EC
:1018A0000001DDE90001C4E9080103E0D6E9000117
:1018B000C4E90801E069C06848B1D4E90801CDE98C
:1018C0000001E0696946C2682046904700BFA08CCD
:1018D000C0F3002020B1E0690021826820469047D3
:1018E0002546C5F804900A49083103C9CDE902012B
:1018F0000297A08CC0F3002010B100208DF80C00DE
:1019000002AA04492846FFF713FFBDE8FF8700003D
:101910000C1D0008FC1C000810B504460420FFF74D
:101920007FFB0148046010BD6000002030B5044614
:10193000002504E04FF47A7000F004F86D1CA54215
:10194000F8D330BD70B5034600224FF0E02675692C
:101950000D4E366803FB06F44FF0E026B16910E047
:101960004FF0E026B06988420BD0884202D20E1AAE
:10197000324402E02E1A0E4432440146A24200D301
:1019800000E0EDE700BF70BD6000002038B5002426
:10199000A0E0524800EB04108068514988420DD104
:1019A00000BF5048806940F004004E4988610846F5
:1019B000806900F00400009000BF7DE0474800EB24
:1019C00004108068484988420DD100BF45488069AD
:1019D00040F00800434988610846806900F008002B
:1019E000009000BF68E03D4800EB041080683F496C
:1019F00088420DD100BF3B48806940F01000394952
:101A000088610846806900F01000009000BF53E034
:101A1000324800EB04108068354988420DD100BF80
:101A20003048806940F020002E498861084680696E
:101A300000F02000009000BF3EE0284800EB0410BA
:101A400080682C4988420DD100BF2648806940F04B
:101A50004000244988610846806900F040000090F9
:101A600000BF29E01D4800EB04108068224988422D
:101A70000DD100BF1B48806940F080001949886182
:101A80000846806900F08000009000BF14E0134811
:101A900000EB04108068194988420DD100BF11483D
:101AA000806940F480700F4988610846806900F4BD
:101AB0008070009000BF00BF084A02EB041302EBE5
:101AC00004125168054A02EB041210680C4AFFF731
:101AD0008FFE641C022CFFF45CAF38BD3400002084
:101AE0000008014000100240000C014000100140BD
:101AF0000014014000180140001C0140002001407A
:101B0000E41C000800B585B000200190029003900D
:101B1000049000BF2A48806940F004002849886189
:101B20000846806900F00400009000BF00BF00BFBD
:101B30000846806940F4804088610846806900F466
:101B40008040009000BF00BF00BF0846806940F0A1
:101B5000010088610846806900F00100009000BF24
:101B600000BF48150190022002900120039003203D
:101B7000049001A91348FEF79DFC4FF4806001908A
:101B80000020029001A90F48FEF794FC0E480F496F
:101B900008604FF4E130486000210C488160C1606A
:101BA000016108214161FFF769FA0848084A00907D
:101BB000516800231068074AFFF760FE05B000BDBA
:101BC000001002400008014000380140740000206D
:101BD0002C0000201800002000BF054A126802F007
:101BE0004002002AF9D0C2B2014B1B1D1A60704797
:101BF0000038014010B506480068FFF7D5FD0548DC
:101C00000068FFF7D1FD044904A0FEF705FB10BDF5
:101C100004000020080000201000002025730000B0
:101C200010B5002305A206A10748FFF79FFD00237A
:101C300006A207A10848FFF799FD10BD70696E5F05
:101C40006C656432000000005C01002070696E5F0A
:101C50006C656431000000003801002010B508A058
:101C6000FFF752FD0849086008A0FFF74DFD09493C
:101C7000086009A0FFF748FD0949086010BD000091
:101C80006C65643200000000040000206C65643163
:101C900000000000080000207573617274310000BC
:101CA0000C000020FEF7C6FD4FF4E010FFF79BFA92
:101CB0004820FFF731FEFFF7CFFD05E0FFF79AFF61
:101CC0004FF4FA70FFF732FEF8E7704700000000AB
:101CD00000000000010203040607080900000000DC
:101CE00001020304CF1500085D160008B5150008B1
:101CF000BF16000800000000010100000000000005
:101D000000000000000000000000000000C2010010
:101D100008000001000000000105000000000000B4
:101D200000000000000000000000000000000000B3
:101D3000010D0000757361727431000070696E5F8F
:101D40006C6564310000000070696E5F6C65643220
:101D5000000000006C65645F696E6974000000003B
:101D60006472697665725F756172745F696E6974B9
:101D7000000000006469727665725F70696E5F6969
:101D80006E6974006D6F64756C655F6E756C6C5F09
:101D9000696E6974000000006C65645F6465765F5D
:101DA000696E697400000000401E000800000020F9
:101DB000740000006C010008B41E000874000020CC
:101DC0006C07000088010008A5A5A5A5541D000802
:101DD0005D1C000800000000000C0000A5A5A5A5E2
:101DE000A5A5A5A5601D0008051B000800000000B2
:101DF00000010000A5A5A5A5A5A5A5A5741D000821
:101E00008D1900080000000000020000A5A5A5A58E
:101E1000A5A5A5A5841D0008CB1C00080000000096
:101E200000000000A5A5A5A5A5A5A5A5981D0008CD
:101E3000211C00080000000000050000A5A5A5A5C4
:101E40000024F4000000000000000000000000007A
:101E500048454C4C4F00000000000000D716000819
:101E6000000000000000000000000000B80000209A
:101E7000341D0008E00000203C1D0008000C01405B
:101E80002000010004010020481D00080018014046
:101E90002000010000000000100000000100000010
:101EA000000000007F0000000000000000000000B3
:041EB000000000002E
:0400000508000131BD
:00000001FF
